{
  "_format": "hh-sol-artifact-1",
  "contractName": "BankAccount",
  "sourceName": "contracts/BankAccount.sol",
  "abi": [
    {
      "anonymous": false,
      "inputs": [
        {
          "indexed": true,
          "internalType": "address",
          "name": "account",
          "type": "address"
        }
      ],
      "name": "AccountCreated",
      "type": "event"
    },
    {
      "anonymous": false,
      "inputs": [
        {
          "indexed": true,
          "internalType": "address",
          "name": "account",
          "type": "address"
        },
        {
          "indexed": false,
          "internalType": "uint256",
          "name": "amount",
          "type": "uint256"
        },
        {
          "indexed": false,
          "internalType": "uint256",
          "name": "timestamp",
          "type": "uint256"
        }
      ],
      "name": "Deposit",
      "type": "event"
    },
    {
      "anonymous": false,
      "inputs": [
        {
          "indexed": true,
          "internalType": "address",
          "name": "from",
          "type": "address"
        },
        {
          "indexed": true,
          "internalType": "address",
          "name": "to",
          "type": "address"
        },
        {
          "indexed": false,
          "internalType": "uint256",
          "name": "amount",
          "type": "uint256"
        },
        {
          "indexed": false,
          "internalType": "uint256",
          "name": "timestamp",
          "type": "uint256"
        }
      ],
      "name": "Transfer",
      "type": "event"
    },
    {
      "anonymous": false,
      "inputs": [
        {
          "indexed": true,
          "internalType": "address",
          "name": "account",
          "type": "address"
        },
        {
          "indexed": false,
          "internalType": "uint256",
          "name": "amount",
          "type": "uint256"
        },
        {
          "indexed": false,
          "internalType": "uint256",
          "name": "timestamp",
          "type": "uint256"
        }
      ],
      "name": "Withdrawal",
      "type": "event"
    },
    {
      "inputs": [
        {
          "internalType": "uint256",
          "name": "",
          "type": "uint256"
        }
      ],
      "name": "accountHolders",
      "outputs": [
        {
          "internalType": "address",
          "name": "",
          "type": "address"
        }
      ],
      "stateMutability": "view",
      "type": "function"
    },
    {
      "inputs": [
        {
          "internalType": "address",
          "name": "",
          "type": "address"
        }
      ],
      "name": "balances",
      "outputs": [
        {
          "internalType": "uint256",
          "name": "",
          "type": "uint256"
        }
      ],
      "stateMutability": "view",
      "type": "function"
    },
    {
      "inputs": [],
      "name": "deposit",
      "outputs": [],
      "stateMutability": "payable",
      "type": "function"
    },
    {
      "inputs": [
        {
          "internalType": "uint256",
          "name": "index",
          "type": "uint256"
        }
      ],
      "name": "getAccountHolder",
      "outputs": [
        {
          "internalType": "address",
          "name": "",
          "type": "address"
        }
      ],
      "stateMutability": "view",
      "type": "function"
    },
    {
      "inputs": [],
      "name": "getAccountHolderCount",
      "outputs": [
        {
          "internalType": "uint256",
          "name": "",
          "type": "uint256"
        }
      ],
      "stateMutability": "view",
      "type": "function"
    },
    {
      "inputs": [
        {
          "internalType": "address",
          "name": "account",
          "type": "address"
        }
      ],
      "name": "getBalance",
      "outputs": [
        {
          "internalType": "uint256",
          "name": "",
          "type": "uint256"
        }
      ],
      "stateMutability": "view",
      "type": "function"
    },
    {
      "inputs": [],
      "name": "getContractBalance",
      "outputs": [
        {
          "internalType": "uint256",
          "name": "",
          "type": "uint256"
        }
      ],
      "stateMutability": "view",
      "type": "function"
    },
    {
      "inputs": [
        {
          "internalType": "address",
          "name": "account",
          "type": "address"
        }
      ],
      "name": "getLastWithdrawalTime",
      "outputs": [
        {
          "internalType": "uint256",
          "name": "",
          "type": "uint256"
        }
      ],
      "stateMutability": "view",
      "type": "function"
    },
    {
      "inputs": [],
      "name": "getMyBalance",
      "outputs": [
        {
          "internalType": "uint256",
          "name": "",
          "type": "uint256"
        }
      ],
      "stateMutability": "view",
      "type": "function"
    },
    {
      "inputs": [
        {
          "internalType": "address",
          "name": "",
          "type": "address"
        }
      ],
      "name": "lastWithdrawalTime",
      "outputs": [
        {
          "internalType": "uint256",
          "name": "",
          "type": "uint256"
        }
      ],
      "stateMutability": "view",
      "type": "function"
    },
    {
      "inputs": [],
      "name": "totalDeposits",
      "outputs": [
        {
          "internalType": "uint256",
          "name": "",
          "type": "uint256"
        }
      ],
      "stateMutability": "view",
      "type": "function"
    },
    {
      "inputs": [
        {
          "internalType": "address",
          "name": "recipient",
          "type": "address"
        },
        {
          "internalType": "uint256",
          "name": "amount",
          "type": "uint256"
        }
      ],
      "name": "transfer",
      "outputs": [],
      "stateMutability": "nonpayable",
      "type": "function"
    },
    {
      "inputs": [
        {
          "internalType": "uint256",
          "name": "amount",
          "type": "uint256"
        }
      ],
      "name": "withdraw",
      "outputs": [],
      "stateMutability": "nonpayable",
      "type": "function"
    },
    {
      "stateMutability": "payable",
      "type": "receive"
    }
  ],
  "bytecode": "0x608060405234801561001057600080fd5b50610aa6806100206000396000f3fe6080604052600436106100c65760003560e01c80636f9fb98a1161007f5780639901148c116100595780639901148c14610329578063a9059cbb14610349578063d0e30db014610369578063f8b2cb4f1461037157600080fd5b80636f9fb98a146102eb5780637d882097146102fe5780638a47516d1461031457600080fd5b806301fe4d5e146101cc57806327e235e3146102155780632e1a7d4d146102425780634c738909146102645780634de5120e1461028657806359148a64146102b357600080fd5b366101c75733600090815260208190526040812054900361014e576002805460018101825560009182527f405787fa12a823e0f2b7631cc41b3ba8828b3321ca811111fa75cd3aa3bb5ace0180546001600160a01b0319163390811790915560405190917f805996f252884581e2f74cf3d2b03564d5ec26ccc90850ae12653dc1b72d1fa291a25b336000908152602081905260408120805434929061016d9084906109ad565b92505081905550346003600082825461018691906109ad565b90915550506040805134815242602082015233917f90890809c654f11d6e72a28fa60149770a0d11ec6c92319d6ceb2bb0a4ea1a15910160405180910390a2005b600080fd5b3480156101d857600080fd5b506102026101e73660046109e2565b6001600160a01b031660009081526001602052604090205490565b6040519081526020015b60405180910390f35b34801561022157600080fd5b506102026102303660046109e2565b60006020819052908152604090205481565b34801561024e57600080fd5b5061026261025d366004610a04565b6103a7565b005b34801561027057600080fd5b5033600090815260208190526040902054610202565b34801561029257600080fd5b506102026102a13660046109e2565b60016020526000908152604090205481565b3480156102bf57600080fd5b506102d36102ce366004610a04565b610560565b6040516001600160a01b03909116815260200161020c565b3480156102f757600080fd5b5047610202565b34801561030a57600080fd5b5061020260035481565b34801561032057600080fd5b50600254610202565b34801561033557600080fd5b506102d3610344366004610a04565b6105d8565b34801561035557600080fd5b50610262610364366004610a1d565b610602565b61026261083d565b34801561037d57600080fd5b5061020261038c3660046109e2565b6001600160a01b031660009081526020819052604090205490565b6000811161040d5760405162461bcd60e51b815260206004820152602860248201527f5769746864726177616c20616d6f756e74206d75737420626520677265617465604482015267072207468616e20360c41b60648201526084015b60405180910390fd5b336000908152602081905260409020548111156104635760405162461bcd60e51b8152602060048201526014602482015273496e73756666696369656e742062616c616e636560601b6044820152606401610404565b3360009081526020819052604081208054839290610482908490610a47565b9091555050336000818152600160205260408082204290555190919083908381818185875af1925050503d80600081146104d8576040519150601f19603f3d011682016040523d82523d6000602084013e6104dd565b606091505b50509050806105225760405162461bcd60e51b815260206004820152601160248201527015da5d1a191c985dd85b0819985a5b1959607a1b6044820152606401610404565b6040805183815242602082015233917fdf273cb619d95419a9cd0ec88123a0538c85064229baa6363788f743fff90deb910160405180910390a25050565b60025460009082106105aa5760405162461bcd60e51b8152602060048201526013602482015272496e646578206f7574206f6620626f756e647360681b6044820152606401610404565b600282815481106105bd576105bd610a5a565b6000918252602090912001546001600160a01b031692915050565b600281815481106105e857600080fd5b6000918252602090912001546001600160a01b0316905081565b6001600160a01b0382166106585760405162461bcd60e51b815260206004820152601960248201527f496e76616c696420726563697069656e742061646472657373000000000000006044820152606401610404565b600081116106b75760405162461bcd60e51b815260206004820152602660248201527f5472616e7366657220616d6f756e74206d75737420626520677265617465722060448201526507468616e20360d41b6064820152608401610404565b3360009081526020819052604090205481111561070d5760405162461bcd60e51b8152602060048201526014602482015273496e73756666696369656e742062616c616e636560601b6044820152606401610404565b336000908152602081905260408120805483929061072c908490610a47565b90915550506001600160a01b038216600090815260208190526040812080548392906107599084906109ad565b90915550506001600160a01b0382166000908152602081905260409020548190036107f4576002805460018101825560009182527f405787fa12a823e0f2b7631cc41b3ba8828b3321ca811111fa75cd3aa3bb5ace0180546001600160a01b0319166001600160a01b03851690811790915560405190917f805996f252884581e2f74cf3d2b03564d5ec26ccc90850ae12653dc1b72d1fa291a25b604080518281524260208201526001600160a01b0384169133917f9ed053bb818ff08b8353cd46f78db1f0799f31c9e4458fdb425c10eccd2efc44910160405180910390a35050565b6000341161089b5760405162461bcd60e51b815260206004820152602560248201527f4465706f73697420616d6f756e74206d75737420626520677265617465722074604482015264068616e20360dc1b6064820152608401610404565b33600090815260208190526040812054900361091e576002805460018101825560009182527f405787fa12a823e0f2b7631cc41b3ba8828b3321ca811111fa75cd3aa3bb5ace0180546001600160a01b0319163390811790915560405190917f805996f252884581e2f74cf3d2b03564d5ec26ccc90850ae12653dc1b72d1fa291a25b336000908152602081905260408120805434929061093d9084906109ad565b92505081905550346003600082825461095691906109ad565b90915550506040805134815242602082015233917f90890809c654f11d6e72a28fa60149770a0d11ec6c92319d6ceb2bb0a4ea1a15910160405180910390a2565b634e487b7160e01b600052601160045260246000fd5b808201808211156109c0576109c0610997565b92915050565b80356001600160a01b03811681146109dd57600080fd5b919050565b6000602082840312156109f457600080fd5b6109fd826109c6565b9392505050565b600060208284031215610a1657600080fd5b5035919050565b60008060408385031215610a3057600080fd5b610a39836109c6565b946020939093013593505050565b818103818111156109c0576109c0610997565b634e487b7160e01b600052603260045260246000fdfea264697066735822122039996566f2d192533bebd50a042148d657235ca3c3ce96611283a3697f7b85d164736f6c63430008130033",
  "linkReferences": {},
  "deployedLinkReferences": {}
}