{
  "_format": "hh-sol-artifact-1",
  "contractName": "TicketSale",
  "sourceName": "contracts/TicketSale.sol",
  "abi": [
    {
      "anonymous": false,
      "inputs": [
        {
          "indexed": true,
          "internalType": "uint256",
          "name": "eventId",
          "type": "uint256"
        },
        {
          "indexed": false,
          "internalType": "string",
          "name": "name",
          "type": "string"
        },
        {
          "indexed": false,
          "internalType": "uint256",
          "name": "date",
          "type": "uint256"
        },
        {
          "indexed": false,
          "internalType": "uint256",
          "name": "priceWei",
          "type": "uint256"
        },
        {
          "indexed": false,
          "internalType": "uint256",
          "name": "maxTickets",
          "type": "uint256"
        }
      ],
      "name": "EventCreated",
      "type": "event"
    },
    {
      "anonymous": false,
      "inputs": [
        {
          "indexed": true,
          "internalType": "address",
          "name": "previousOwner",
          "type": "address"
        },
        {
          "indexed": true,
          "internalType": "address",
          "name": "newOwner",
          "type": "address"
        }
      ],
      "name": "OwnershipTransferred",
      "type": "event"
    },
    {
      "anonymous": false,
      "inputs": [
        {
          "indexed": true,
          "internalType": "uint256",
          "name": "ticketId",
          "type": "uint256"
        },
        {
          "indexed": true,
          "internalType": "uint256",
          "name": "eventId",
          "type": "uint256"
        },
        {
          "indexed": true,
          "internalType": "address",
          "name": "buyer",
          "type": "address"
        },
        {
          "indexed": false,
          "internalType": "uint256",
          "name": "value",
          "type": "uint256"
        }
      ],
      "name": "TicketPurchased",
      "type": "event"
    },
    {
      "inputs": [
        {
          "internalType": "uint256",
          "name": "eventId",
          "type": "uint256"
        }
      ],
      "name": "buyTicket",
      "outputs": [
        {
          "internalType": "uint256",
          "name": "",
          "type": "uint256"
        }
      ],
      "stateMutability": "payable",
      "type": "function"
    },
    {
      "inputs": [
        {
          "internalType": "string",
          "name": "name",
          "type": "string"
        },
        {
          "internalType": "uint256",
          "name": "date",
          "type": "uint256"
        },
        {
          "internalType": "uint256",
          "name": "priceWei",
          "type": "uint256"
        },
        {
          "internalType": "uint256",
          "name": "maxTickets",
          "type": "uint256"
        }
      ],
      "name": "createEvent",
      "outputs": [],
      "stateMutability": "nonpayable",
      "type": "function"
    },
    {
      "inputs": [],
      "name": "eventCount",
      "outputs": [
        {
          "internalType": "uint256",
          "name": "",
          "type": "uint256"
        }
      ],
      "stateMutability": "view",
      "type": "function"
    },
    {
      "inputs": [
        {
          "internalType": "uint256",
          "name": "",
          "type": "uint256"
        }
      ],
      "name": "events",
      "outputs": [
        {
          "internalType": "string",
          "name": "name",
          "type": "string"
        },
        {
          "internalType": "uint256",
          "name": "date",
          "type": "uint256"
        },
        {
          "internalType": "uint256",
          "name": "priceWei",
          "type": "uint256"
        },
        {
          "internalType": "uint256",
          "name": "maxTickets",
          "type": "uint256"
        },
        {
          "internalType": "uint256",
          "name": "sold",
          "type": "uint256"
        },
        {
          "internalType": "bool",
          "name": "exists",
          "type": "bool"
        }
      ],
      "stateMutability": "view",
      "type": "function"
    },
    {
      "inputs": [
        {
          "internalType": "uint256",
          "name": "eventId",
          "type": "uint256"
        }
      ],
      "name": "getEvent",
      "outputs": [
        {
          "internalType": "string",
          "name": "",
          "type": "string"
        },
        {
          "internalType": "uint256",
          "name": "",
          "type": "uint256"
        },
        {
          "internalType": "uint256",
          "name": "",
          "type": "uint256"
        },
        {
          "internalType": "uint256",
          "name": "",
          "type": "uint256"
        },
        {
          "internalType": "uint256",
          "name": "",
          "type": "uint256"
        }
      ],
      "stateMutability": "view",
      "type": "function"
    },
    {
      "inputs": [],
      "name": "getMyTickets",
      "outputs": [
        {
          "internalType": "uint256[]",
          "name": "",
          "type": "uint256[]"
        }
      ],
      "stateMutability": "view",
      "type": "function"
    },
    {
      "inputs": [
        {
          "internalType": "uint256",
          "name": "ticketId",
          "type": "uint256"
        }
      ],
      "name": "getTicket",
      "outputs": [
        {
          "internalType": "uint256",
          "name": "",
          "type": "uint256"
        },
        {
          "internalType": "address",
          "name": "",
          "type": "address"
        }
      ],
      "stateMutability": "view",
      "type": "function"
    },
    {
      "inputs": [],
      "name": "owner",
      "outputs": [
        {
          "internalType": "address",
          "name": "",
          "type": "address"
        }
      ],
      "stateMutability": "view",
      "type": "function"
    },
    {
      "inputs": [],
      "name": "renounceOwnership",
      "outputs": [],
      "stateMutability": "nonpayable",
      "type": "function"
    },
    {
      "inputs": [],
      "name": "ticketCounter",
      "outputs": [
        {
          "internalType": "uint256",
          "name": "",
          "type": "uint256"
        }
      ],
      "stateMutability": "view",
      "type": "function"
    },
    {
      "inputs": [
        {
          "internalType": "uint256",
          "name": "",
          "type": "uint256"
        }
      ],
      "name": "tickets",
      "outputs": [
        {
          "internalType": "uint256",
          "name": "eventId",
          "type": "uint256"
        },
        {
          "internalType": "address",
          "name": "owner",
          "type": "address"
        }
      ],
      "stateMutability": "view",
      "type": "function"
    },
    {
      "inputs": [
        {
          "internalType": "address",
          "name": "newOwner",
          "type": "address"
        }
      ],
      "name": "transferOwnership",
      "outputs": [],
      "stateMutability": "nonpayable",
      "type": "function"
    }
  ],
  "bytecode": "0x608060405234801561001057600080fd5b5061001a3361001f565b61006f565b600080546001600160a01b038381166001600160a01b0319831681178455604051919092169283917f8be0079c531659141344cd1fd0a4f28419497f9722a3daafe3b4186f6b6457e09190a35050565b610d508061007e6000396000f3fe6080604052600436106100a75760003560e01c806371be2e4a1161006457806371be2e4a146101ca5780637dc379fa146101e05780638c4d59d0146102215780638da5cb5b14610237578063e1d10d851461025f578063f2fde38b1461028157600080fd5b80630374ab0b146100ac5780630b791430146100ce57806350b447121461010957806367dd74ca146101635780636d1884e014610184578063715018a6146101b5575b600080fd5b3480156100b857600080fd5b506100cc6100c736600461097d565b6102a1565b005b3480156100da57600080fd5b506100ee6100e9366004610a05565b610456565b60405161010096959493929190610a64565b60405180910390f35b34801561011557600080fd5b50610146610124366004610a05565b600460205260009081526040902080546001909101546001600160a01b031682565b604080519283526001600160a01b03909116602083015201610100565b610176610171366004610a05565b610516565b604051908152602001610100565b34801561019057600080fd5b506101a461019f366004610a05565b6106d1565b604051610100959493929190610aa2565b3480156101c157600080fd5b506100cc6107e5565b3480156101d657600080fd5b5061017660015481565b3480156101ec57600080fd5b506101466101fb366004610a05565b6000908152600460205260409020805460019091015490916001600160a01b0390911690565b34801561022d57600080fd5b5061017660025481565b34801561024357600080fd5b506000546040516001600160a01b039091168152602001610100565b34801561026b57600080fd5b506102746107f9565b6040516101009190610ad9565b34801561028d57600080fd5b506100cc61029c366004610b1d565b61085a565b6102a96108d3565b836102eb5760405162461bcd60e51b815260206004820152600d60248201526c13985b59481c995c5d5a5c9959609a1b60448201526064015b60405180910390fd5b6000811161032a5760405162461bcd60e51b815260206004820152600c60248201526b06d61785469636b6574733e360a41b60448201526064016102e2565b6001805490600061033a83610b4d565b91905055506040518060c0016040528086868080601f0160208091040260200160405190810160405280939291908181526020018383808284376000920182905250938552505050602080830187905260408084018790526060840186905260808401839052600160a0909401849052925482526003905220815181906103c19082610c13565b506020820151816001015560408201518160020155606082015181600301556080820151816004015560a08201518160050160006101000a81548160ff0219169083151502179055509050506001547f72deeb9ef57375133dcdf3dd5ba7a069d5bb62851a22ce62f0f3bbd7a4343aef8686868686604051610447959493929190610cd3565b60405180910390a25050505050565b60036020526000908152604090208054819061047190610b8a565b80601f016020809104026020016040519081016040528092919081815260200182805461049d90610b8a565b80156104ea5780601f106104bf576101008083540402835291602001916104ea565b820191906000526020600020905b8154815290600101906020018083116104cd57829003601f168201915b505050600184015460028501546003860154600487015460059097015495969295919450925060ff1686565b6000818152600360205260408120600581015460ff1661056f5760405162461bcd60e51b8152602060048201526014602482015273115d995b9d08191bd95cc81b9bdd08195e1a5cdd60621b60448201526064016102e2565b80600301548160040154106105b15760405162461bcd60e51b815260206004820152600860248201526714dbdb19081bdd5d60c21b60448201526064016102e2565b806002015434146105f85760405162461bcd60e51b8152602060048201526011602482015270125b98dbdc9c9958dd081c185e5b595b9d607a1b60448201526064016102e2565b60048101805490600061060a83610b4d565b90915550506002805490600061061f83610b4d565b909155505060408051808201825284815233602080830182815260028054600090815260048452868120955186559151600195860180546001600160a01b0319166001600160a01b03909216919091179055838252600583528582208154815496870182559083529183902090940155915492513481529092869290917fc3b7539e996dc1d1252af1e3c72474162b7a9c7cc7411ca8905732eaf6fff328910160405180910390a45050600254919050565b600081815260036020526040812060058101546060929182918291829160ff1661072d5760405162461bcd60e51b815260206004820152600d60248201526c4576656e74206d697373696e6760981b60448201526064016102e2565b80600001816001015482600201548360030154846004015484805461075190610b8a565b80601f016020809104026020016040519081016040528092919081815260200182805461077d90610b8a565b80156107ca5780601f1061079f576101008083540402835291602001916107ca565b820191906000526020600020905b8154815290600101906020018083116107ad57829003601f168201915b50505050509450955095509550955095505091939590929450565b6107ed6108d3565b6107f7600061092d565b565b3360009081526005602090815260409182902080548351818402810184019094528084526060939283018282801561085057602002820191906000526020600020905b81548152602001906001019080831161083c575b5050505050905090565b6108626108d3565b6001600160a01b0381166108c75760405162461bcd60e51b815260206004820152602660248201527f4f776e61626c653a206e6577206f776e657220697320746865207a65726f206160448201526564647265737360d01b60648201526084016102e2565b6108d08161092d565b50565b6000546001600160a01b031633146107f75760405162461bcd60e51b815260206004820181905260248201527f4f776e61626c653a2063616c6c6572206973206e6f7420746865206f776e657260448201526064016102e2565b600080546001600160a01b038381166001600160a01b0319831681178455604051919092169283917f8be0079c531659141344cd1fd0a4f28419497f9722a3daafe3b4186f6b6457e09190a35050565b60008060008060006080868803121561099557600080fd5b853567ffffffffffffffff808211156109ad57600080fd5b818801915088601f8301126109c157600080fd5b8135818111156109d057600080fd5b8960208285010111156109e257600080fd5b60209283019a909950918801359760408101359750606001359550909350505050565b600060208284031215610a1757600080fd5b5035919050565b6000815180845260005b81811015610a4457602081850181015186830182015201610a28565b506000602082860101526020601f19601f83011685010191505092915050565b60c081526000610a7760c0830189610a1e565b602083019790975250604081019490945260608401929092526080830152151560a090910152919050565b60a081526000610ab560a0830188610a1e565b90508560208301528460408301528360608301528260808301529695505050505050565b6020808252825182820181905260009190848201906040850190845b81811015610b1157835183529284019291840191600101610af5565b50909695505050505050565b600060208284031215610b2f57600080fd5b81356001600160a01b0381168114610b4657600080fd5b9392505050565b600060018201610b6d57634e487b7160e01b600052601160045260246000fd5b5060010190565b634e487b7160e01b600052604160045260246000fd5b600181811c90821680610b9e57607f821691505b602082108103610bbe57634e487b7160e01b600052602260045260246000fd5b50919050565b601f821115610c0e57600081815260208120601f850160051c81016020861015610beb5750805b601f850160051c820191505b81811015610c0a57828155600101610bf7565b5050505b505050565b815167ffffffffffffffff811115610c2d57610c2d610b74565b610c4181610c3b8454610b8a565b84610bc4565b602080601f831160018114610c765760008415610c5e5750858301515b600019600386901b1c1916600185901b178555610c0a565b600085815260208120601f198616915b82811015610ca557888601518255948401946001909101908401610c86565b5085821015610cc35787850151600019600388901b60f8161c191681555b5050505050600190811b01905550565b60808152846080820152848660a0830137600060a08683010152600060a0601f19601f8801168301019050846020830152836040830152826060830152969550505050505056fea2646970667358221220e204d5d4e27ab7464bc2c16c231b68f8f6e097ab20d881a54be8b12ea2dacbdb64736f6c63430008130033",
  "linkReferences": {},
  "deployedLinkReferences": {}
}